:020000040800F2
:10000000005000206D1F0008CD060008CF06000834
:10001000D1060008D3060008D5060008000000003D
:10002000000000000000000000000000D7060008EB
:10003000D906000800000000DB060008DD06000805
:10004000B51F0008B51F0008B51F0008B51F000840
:10005000B51F0008B51F0008B51F0008B51F000830
:10006000B51F0008B51F0008B51F0008B51F000820
:10007000B51F0008B51F0008B51F0008B51F000810
:10008000B51F0008B51F0008B51F0008B51F000800
:10009000B51F0008B51F0008B51F0008B51F0008F0
:1000A000B51F0008B51F0008B51F0008B51F0008E0
:1000B000B51F0008B51F0008B51F0008B51F0008D0
:1000C000B51F0008B51F0008B51F0008B51F0008C0
:1000D000B51F0008B51F0008B51F0008B51F0008B0
:1000E000B51F0008B51F0008B51F0008000000007C
:1000F0000000000000000000000000000000000000
:0C01000000000000000000005FF808F1A3
:10010C0010B5054C237833B9044B13B10448AFF345
:10011C0000800123237010BD1C0000200000000093
:10012C00B020000808B5034B1BB103490348AFF3DB
:10013C00008008BD0000000020000020B020000856
:10014C0000B585B000F0F0030001C0B243F00C0222
:10015C008DF80C2043F008038DF80D3040F00C03A3
:10016C008DF80E3040F008008DF80F0064230093DA
:10017C00042303AA4E21034801F018FB05B05DF8D7
:10018C0004FB00BF5800002000B585B000F0F00360
:10019C000001C0B243F00D028DF80C2043F00903AE
:1001AC008DF80D3040F00D038DF80E3040F0090045
:1001BC008DF80F0064230093042303AA4E210348F7
:1001CC0001F0F4FA05B05DF804FB00BF5800002004
:1001DC0010B58020FFF7B4FF002403E02020FFF7C8
:1001EC00D3FF0134452CF9DD10BD08B528B1012829
:1001FC0006D0C8B2FFF7A4FF08BD41F08001F8E7B4
:10020C0041F0C001F5E708B5322000F02DFF302099
:10021C00FFF796FF052000F027FF3020FFF790FF37
:10022C00012000F021FF3020FFF78AFF0A2000F0A8
:10023C001BFF2020FFF784FF0A2000F015FF282069
:10024C00FFF77EFF012000F00FFF0820FFF778FF7B
:10025C00012000F009FF0120FFF772FF012000F0E0
:10026C0003FF012000F000FF0620FFF769FF0120CB
:10027C0000F0FAFE0C20FFF763FF08BD10B5044632
:10028C0002E00134FFF780FF20780028F9D110BD7F
:10029C0000B585B000F0F0030001C0B243F00C02D1
:1002AC008DF80C2043F008038DF80D3040F00C0352
:1002BC008DF80E3040F008008DF80F006423009389
:1002CC00042303AA4E21034801F070FA05B05DF82F
:1002DC0004FB00BFAC00002000B585B000F0F003BB
:1002EC000001C0B243F00D028DF80C2043F009035D
:1002FC008DF80D3040F00D038DF80E3040F00900F4
:10030C008DF80F0064230093042303AA4E210348A5
:10031C0001F04CFA05B05DF804FB00BFAC00002006
:10032C0008B528B1012806D0C8B2FFF7B1FF08BD47
:10033C0041F08001F8E741F0C001F5E708B5322043
:10034C0000F092FE3020FFF7A3FF052000F08CFE9A
:10035C003020FFF79DFF012000F086FE3020FFF7D4
:10036C0097FF0A2000F080FE2020FFF791FF0A2063
:10037C0000F07AFE2820FFF78BFF012000F074FEBE
:10038C000820FFF785FF012000F06EFE0120FFF72B
:10039C007FFF012000F068FE012000F065FE0620C2
:1003AC00FFF776FF012000F05FFE0C20FFF770FFD7
:1003BC0008BD10B5044602E00134FFF78DFF20782C
:1003CC000028F9D110BD00002DE9F04188B00024BF
:1003DC000494059406940794334B9A6942F01002E6
:1003EC009A619A6902F010020092009A9A6942F09E
:1003FC0020029A619A6902F020020192019A9A698C
:10040C0042F004029A619A6902F004020292029A82
:10041C009A6942F008029A619B6903F008030393FE
:10042C00039B224F22464FF40051384600F07FFFC9
:10043C001F4E22463821304600F079FF4FF400530E
:10044C0004930125059506944FF00208CDF81C8005
:10045C0004A9384600F078FE4FF440430493059409
:10046C00069504A9384600F06FFE382304930595D1
:10047C000694CDF81C8004A9304600F065FE4FF4BC
:10048C00704304930594069504A90A4800F05CFE99
:10049C004FF4C05304930594069504A9304600F01C
:1004AC0053FE08B0BDE8F08100100240001001407E
:1004BC0000080140000C014072B6FEE708B50A487E
:1004CC000A4B03600A4B436000238360C3604FF404
:1004DC008042026143618361C361036201F08CF865
:1004EC0000B908BDFFF7E8FF580000200054004099
:1004FC00A086010008B50A480A4B03600A4B43600A
:10050C0000238360C3604FF48042026143618361C6
:10051C00C361036201F070F800B908BDFFF7CCFFAE
:10052C00AC00002000580040A086010000B591B03E
:10053C000023089309930B930C9301930293039359
:10054C0004930593012206924FF4803307930A9289
:10055C0002220D920E934FF4E0130F9306A801F0B4
:10056C00F5F990B90F230193022102910023039313
:10057C004FF4806304934FF4A063059301A801F03A
:10058C0025FC20B911B05DF804FBFFF795FFFFF7D0
:10059C0093FF08B500F044FDFFF7C8FFFFF714FF09
:1005AC00FFF78CFFFFF7A6FF00F098F800F0B2F908
:1005BC0000F0BAF900F0AEF900F088FA00F0AAF9F0
:1005CC0000F056FB00F0A6F900F022FCEEE700006C
:1005DC0082B00E4B9A6942F001029A619A6902F05C
:1005EC0001020092009ADA6942F08052DA61DB690A
:1005FC0003F080530193019B054A536823F0E06399
:10060C0043F00073536002B0704700BF001002400B
:10061C000000014010B588B00023049305930693A5
:10062C0007930368224A934204D0224A93421FD074
:10063C0008B010BD204CA36943F00803A361A36963
:10064C0003F008030093009BC0230493122305932B
:10065C000323079304A9194800F076FDE36943F4DA
:10066C000013E361E36903F400130193019BDFE7DB
:10067C00114CA36943F00803A361A36903F00803B9
:10068C000293029B4FF440630493122305930323BC
:10069C00079304A9094800F057FDE36943F480036C
:1006AC00E361E36903F480030393039BC0E700BF9A
:1006BC00005400400058004000100240000C014063
:1006CC00FEE7FEE7FEE7FEE7FEE770477047704780
:1006DC0008B500F0B7FC08BD7047000010B5FFF777
:1006EC0092FDFFF72BFE3848FFF7C8FD4FF47A70E8
:1006FC0000F0BAFC00210120FFF777FD3348FFF72B
:10070C00BDFD334C01220821204600F010FE4FF4B1
:10071C00FA7000F0A9FC00220821204600F007FE28
:10072C0001221021204600F002FE4FF4FA7000F076
:10073C009BFC00221021204600F0F9FD0122202113
:10074C00204600F0F4FD4FF4FA7000F08DFC01220D
:10075C001021204600F0EBFD01220821204600F07C
:10076C00E6FD4FF4FA7000F07FFC002208212046D1
:10077C0000F0DDFD00221021204600F0D8FD002203
:10078C002021204600F0D3FDFFF722FD0021084672
:10079C00FFF72BFD0F48FFF771FD00210120FFF73C
:1007AC0024FD0D48FFF76AFD00210846FFF7B8FD50
:1007BC000A48FFF7FEFD00210120FFF7B1FD0848B4
:1007CC00FFF7F7FD10BD00BFF4200008FC20000867
:1007DC0000080140082100080C2100081421000821
:1007EC001C21000808B54FF400410C4800F098FD9E
:1007FC0000B108BD0921FFF7F8FC0948FFF73EFDE1
:10080C000C210020FFF7F1FC0648FFF737FD002311
:10081C00054A1360054A1360EBE700BF000C01406A
:10082C0024210008282100080400002038000020A2
:10083C0008B54FF480410C4800F072FD00B108BDC2
:10084C0009210120FFF7D1FC0848FFF717FD0C2107
:10085C000120FFF7CAFC0648FFF710FD0023054AEC
:10086C005360054A5360EAE7000C0140242100085C
:10087C0028210008040000203800002008B54FF49F
:10088C0000510C4800F04CFD00B108BD0921FFF7E8
:10089C0047FD0948FFF78DFD0C210020FFF740FDB7
:1008AC000648FFF786FD0023054A9360054A9360CE
:1008BC00EBE700BF000C01402421000828210008B0
:1008CC00040000203800002008B54FF480510C487B
:1008DC0000F026FD00B108BD09210120FFF720FD25
:1008EC000848FFF766FD0C210120FFF719FD0648AB
:1008FC00FFF75FFD0023054AD360054AD360EAE7A2
:10090C00000C0140242100082821000804000020CC
:10091C003800002008B5FFF765FFFFF789FFFFF7E8
:10092C00ADFFFFF7D1FF08BD30B583B00022082121
:10093C00604800F0FCFC4FF4FA7000F095FB5E4B45
:10094C0000221A614FF480415C4800F0E9FC002859
:10095C0040F0AE80584B1B69002B40F0A98001225F
:10096C00082100F1804000F5843000F0E0FC4FF4E9
:10097C000051524800F0E1FC4F4B01221A6166E035
:10098C000A210020FFF731FC6DE009210020FFF760
:10099C002CFC6CE00024484B1C6009212046FFF71E
:1009AC0024FC4748FFF76AFC0C212046FFF71DFC8E
:1009BC004448FFF763FC444D0A2201A9286801F062
:1009CC0031FB0F212046FFF710FC01A8FFF756FC66
:1009DC002B68092B17DD3C4B1B680A3B592B1AD98A
:1009EC00394B1B68643BB3F5617F1CD3364B1B68DA
:1009FC00A3F57A7342F2273293421CD9324A136818
:100A0C00013313603EE00F212046FFF7EEFB01A8F7
:100A1C00FFF734FCDFE70E210020FFF7E6FB01A80F
:100A2C00FFF72CFCDCE70D210020FFF7DEFB01A813
:100A3C00FFF724FCDAE70C210020FFF7D6FB01A816
:100A4C00FFF71CFCDAE71C4A1368013313601A4BDE
:100A5C0018683C282CDC0A22694601F0E3FA164B94
:100A6C001B68092B8CDD144B1B68092B8DDC68462D
:100A7C00FFF704FC4FF47A7000F0F6FA0E4B1B688B
:100A8C003C2B87D0FFF746FF4FF480410B4800F01A
:100A9C0047FC0028D7D1084B1B69012BD3D14FF44D
:100AAC00005100F1804000F5883000F046FC3DE735
:100ABC0003B030BD00080140380000200010014098
:100ACC0024210008282100080400002010B582B061
:100ADC0000221021604800F02AFC4FF4FA7000F05C
:100AEC00C3FA5E4B00225A614FF400415C4800F09F
:100AFC0017FC002840F0AE80584B5B69002B40F08F
:100B0C00A9800122102100F1804000F5843000F012
:100B1C000EFC4FF40051524800F00FFC4F4B0122D9
:100B2C005A6166E00A210120FFF75FFB6DE00921A5
:100B3C000120FFF75AFB6CE0484B00225A60092158
:100B4C000120FFF752FB4748FFF798FB0C210120CF
:100B5C00FFF74BFB4448FFF791FB444C0A2201A9D9
:100B6C00606801F05FFA0F210120FFF73EFB01A83E
:100B7C00FFF784FB6368092B17DD3C4B5B680A3B72
:100B8C00592B1AD9394B5B68643BB3F5617F1CD385
:100B9C00364B5B68A3F57A7342F2273293421CD929
:100BAC00324A5368013353603EE00F210120FFF7B6
:100BBC001CFB01A8FFF762FBDFE70E210120FFF70A
:100BCC0014FB01A8FFF75AFBDCE70D210120FFF70E
:100BDC000CFB01A8FFF752FBDAE70C210120FFF711
:100BEC0004FB01A8FFF74AFBDAE71C4A5368013300
:100BFC0053601A4B58683C282CDC0A22694601F0D9
:100C0C0011FA164B5B68092B8CDD144B5B68092BB6
:100C1C008DDC6846FFF732FB4FF47A7000F024FA53
:100C2C000E4B5B683C2B87D0FFF774FE4FF40041F2
:100C3C000B4800F075FB0028D7D1084B5B69012BE2
:100C4C00D3D14FF4005100F1804000F5883000F012
:100C5C0074FB3DE702B010BD0008014038000020D5
:100C6C000010014024210008282100080400002065
:100C7C0030B583B0604C00222021204600F057FB99
:100C8C004FF4FA7000F0F0F95C4B00229A614FF4CB
:100C9C008051204600F044FB002840F0AB80574BBD
:100CAC009B69002B40F0A68001222021204600F0F9
:100CBC003EFB4FF40051524800F03FFB4F4B0122DA
:100CCC009A6166E00A210020FFF72AFB6DE00921FA
:100CDC000020FFF725FB6CE00024484B9C600921A9
:100CEC002046FFF71DFB4748FFF763FB0C2120460E
:100CFC00FFF716FB4448FFF75CFB444D0A2201A9A1
:100D0C00A86801F08FF90F212046FFF709FB01A815
:100D1C00FFF74FFBAB68092B17DD3C4B9B680A3B7D
:100D2C00592B1AD9394B9B68643BB3F5617F1CD3A3
:100D3C00364B9B68A3F57A7342F2273293421CD947
:100D4C00324A9368013393603EE00F212046FFF74F
:100D5C00E7FA01A8FFF72DFBDFE70E210020FFF7D4
:100D6C00DFFA01A8FFF725FBDCE70D210020FFF7D8
:100D7C00D7FA01A8FFF71DFBDAE70C210020FFF7DB
:100D8C00CFFA01A8FFF715FBDAE71C4A9368013389
:100D9C0093601A4B98683C282CDC0A22694601F0B7
:100DAC0041F9164B9B68092B8CDD144B9B68092B66
:100DBC008DDC6846FFF7FDFA4FF47A7000F054F9B9
:100DCC000E4B9B683C2B87D0FFF7A4FD4FF4805152
:100DDC00094800F0A5FA0028D7D1084B9B69012BD4
:100DEC00D3D14FF4005100F1804000F5883000F071
:100DFC00A4FA3FE703B030BD0008014038000020E2
:100E0C0000100140242100082821000804000020C3
:100E1C0010B582B06A4C00220821204600F087FAF7
:100E2C0000221021204600F082FA002220212046C8
:100E3C0000F07DFA4FF4FA7000F016F9614B0022C5
:100E4C00DA614FF40061204600F06AFA002840F0A5
:100E5C00B5805C4BDB69002B40F0B080012208218F
:100E6C00204600F064FA01221021204600F05FFABF
:100E7C0001222021204600F05AFA4FF4005152482A
:100E8C0000F05BFA4F4B0122DA6166E00A21012087
:100E9C00FFF746FA6DE009210120FFF741FA6CE0FB
:100EAC00484B0022DA6009210120FFF739FA474844
:100EBC00FFF77FFA0C210120FFF732FA4448FFF7C5
:100ECC0078FA444C0A2201A9E06801F0ABF80F2132
:100EDC000120FFF725FA01A8FFF76BFAE368092B4D
:100EEC0017DD3C4BDB680A3B592B1AD9394BDB68B5
:100EFC00643BB3F5617F1CD3364BDB68A3F57A7387
:100F0C0042F2273293421CD9324AD3680133D36060
:100F1C003EE00F210120FFF703FA01A8FFF749FA81
:100F2C00DFE70E210120FFF7FBF901A8FFF741FADB
:100F3C00DCE70D210120FFF7F3F901A8FFF739FADF
:100F4C00DAE70C210120FFF7EBF901A8FFF731FAE2
:100F5C00DAE71C4AD3680133D3601A4BD8683C28B3
:100F6C002CDC0A22694601F05DF8164BDB68092B74
:100F7C008CDD144BDB68092B8DDC6846FFF719FA06
:100F8C004FF47A7000F070F80E4BDB683C2B87D076
:100F9C00FFF7C0FC4FF40061094800F0C1F90028CC
:100FAC00D7D1084BDB69012BD3D14FF4005100F1A1
:100FBC00804000F5883000F0C0F92BE702B010BD7E
:100FCC0000080140380000200010014024210008D6
:100FDC00282100080400002010B504460E4B187898
:100FEC004FF47A73B3FBF0F30C4A1068B0FBF3F0D8
:100FFC0000F094F868B90F2C01D901200AE0002206
:10100C0021464FF0FF3000F055F8034B5C60002098
:10101C0000E0012010BD00BF1400002000000020E3
:10102C0008B5074A136843F010031360032000F05F
:10103C002FF80020FFF7D0FFFFF7CAFA002008BDF9
:10104C0000200240034A1168034B1B780B441360C9
:10105C00704700BF0001002014000020014B1868ED
:10106C00704700BF0001002038B50446FFF7F6FFBB
:10107C000546B4F1FF3F02D0044B1B781C44FFF72C
:10108C00EDFF401BA042FAD338BD00BF1400002076
:10109C00074AD36823F4E0631B041B0C000200F422
:1010AC00E060184340F0BF6040F40030D0607047FF
:1010BC0000ED00E030B4174BDB68C3F30223C3F13F
:1010CC000704042C28BF04241D1D062D18D9033B2E
:1010DC004FF0FF3505FA04F421EA0401994005FAB2
:1010EC0003F322EA0303194300280BDB0901C9B2FD
:1010FC0000F1604000F5614080F8001330BC70478F
:10110C000023E5E700F00F000901C9B2024B1954A6
:10111C00F4E700BF00ED00E014ED00E00138B0F1A1
:10112C00807F0AD2064B5860064AF02182F82310C1
:10113C000020986007221A6070470120704700BF9A
:10114C0010E000E000ED00E0F0B482B00026324682
:10115C00A2E0002D5AD0012D00D1CE68FF2B69D80A
:10116C008446FF2B69D89500DCF800400F27AF4070
:10117C0024EA070406FA05F52C43CCF800404C6829
:10118C0014F0805F00F087805F4CA56945F0010585
:10119C00A561A46904F001040194019C9508AF1C9D
:1011AC005A4C54F8274002F00307BF004FF00F0CC5
:1011BC000CFA07FC24EA0C0C554CA04243D004F565
:1011CC008064A04200F0818004F58064A0427ED04F
:1011DC0004F58064A04234D0042435E04D4FBD4268
:1011EC0014D00BD94C4FBD4210D007F58037BD42FF
:1011FC000CD0A7F58017BD42B0D107E0A7F580173A
:10120C00BD4203D007F58037BD42A7D18D687DB1B3
:10121C00012D08D044610826A0E7CE6808369DE76A
:10122C00CE680C369AE70461082697E7002695E706
:10123C00042693E700F1040C93E7A2F10805AD0036
:10124C0092E7032400E00024BC4044EA0C0402357D
:10125C002E4F47F825404C6814F4803F39D02F4D61
:10126C002C681C432C604C6814F4003F37D02B4D79
:10127C006C681C436C604C6814F4801F35D0274D8F
:10128C00AC681C43AC604C6814F4001F33D0234D85
:10129C00EC682343EB6001320B6833FA02F430D074
:1012AC000124944023409C42F5D14D68122DB7D0B7
:1012BC0094D8022DB1D07FF64CAF032DB6D0112DA2
:1012CC007FF44CAFCE68043648E70124BCE7022417
:1012DC00BAE7124D2C6824EA03042C60C3E70F4DC7
:1012EC006C6824EA03046C60C5E70C4DAC6824EA16
:1012FC000304AC60C7E7094DEC6824EA0303EB6018
:10130C00C9E702B0F0BC7047001002400000014079
:10131C0000080140000021100000311000040140C1
:10132C008368194201D1002070470120704712B91F
:10133C0009040161704701617047C36801EA030247
:10134C0021EA030141EA02410161704703685A69CD
:10135C0012F4806F11D06FF480625A610023036322
:10136C00202280F83D2080F83E30026C42F00402CE
:10137C00026480F83C300120704700207047F8B5BB
:10138C0006460C4617461D4622E0FFF767FE069BF5
:10139C00C01AA84200D8DDB900233363202286F896
:1013AC003D2086F83E30326C42F02002326486F8E2
:1013BC003C3001201AE033685B6924EA03039BB2DA
:1013CC00B3FA83F35B099F420FD1B5F1FF3FDCD138
:1013DC00C4F30743012BEED033689B6924EA030363
:1013EC009BB2B3FA83F35B09EDE70020F8BDF8B5C7
:1013FC0004460D4616461F463CE01A6842F400723D
:10140C001A6023686FF480625A61002323632022E0
:10141C0084F83D2084F83E30226C42F004022264B1
:10142C0084F83C30012033E0FFF718FEC01BB042BB
:10143C0000D8FEB900232363202284F83D2084F8D1
:10144C003E30226C42F02002226484F83C300120B1
:10145C001EE023685B6925EA03039BB2003318BFC7
:10146C000123A3B123685A6912F4806FC5D1B6F178
:10147C00FF3FD9D1C5F30743012BEAD023689B6901
:10148C0025EA03039BB2003318BF0123E9E70020D0
:10149C00F8BD0000F0B583B004460F4615461E4655
:1014AC00C36A082B0DD0012B0BD013F5803F08D04D
:1014BC00036B122B0AD10268136843F48073136018
:1014CC0004E02268136843F48073136000962B4683
:1014DC0000224FF001112046FFF751FF58B123684D
:1014EC001B6813F4807F2BD04FF400732364032309
:1014FC00184603B0F0BD2369B3F5804F0ED12368B5
:10150C0007F0FE071F6133462A460F492046FFF7B6
:10151C006EFF03460028EBD00123E9E7FB1122689C
:10152C0003F0060343F0F003136133462A460749E0
:10153C002046FFF75CFF28B92368FFB21F61E2E782
:10154C000323D5E70123D3E70200010008000100C3
:10155C0070B504460D46164623685B6913F0800F80
:10156C001CD12046FFF7F2FED0B9B5F1FF3FF3D006
:10157C00FFF774FD801BA84201D8002DECD100238D
:10158C002363202284F83D2084F83E30226C42F004
:10159C002002226484F83C30012000E0002070BD61
:1015AC000120FCE770B504460D46164623685B69BE
:1015BC0013F0040F1CD12046FFF7C8FED0B9B5F1CB
:1015CC00FF3FF3D0FFF74AFD801BA84201D8002D46
:1015DC00ECD100232363202284F83D2084F83E3094
:1015EC00226C42F02002226484F83C30012000E09E
:1015FC00002070BD0120FCE7002800F0C880F8B581
:10160C00044690F83D30002B75D0242384F83D30EF
:10161C002268136823F0010313602268136843F4F3
:10162C00004313602268136823F40043136000F036
:10163C0087FC6268584B9A4262D8584B98428CBFD0
:10164C0000230123002B40F0A480554BA3FB002367
:10165C009B0C21684A6822F03F021A434A602568B5
:10166C002A6A22F03F0266684B498E424ED80133FB
:10167C0013432B622568E96921F44F4121F0FF01E6
:10168C006368454A93424BD801385B00B0FBF3F3D7
:10169C000133C3F30B03042B38BF04230B43EB615F
:1016AC0021680B6823F0C003E269206A02431343EC
:1016BC000B6021688B6823F4034323F0FF0322693A
:1016CC00E068024313438B602168CB6823F0FF036F
:1016DC006269A06902431343CB602268136843F02C
:1016EC000103136000202064202384F83D30206324
:1016FC0084F83E00F8BD80F83C30FEF78BFF84E7A1
:10170C00284B98428CBF002301239BE74FF4967122
:10171C0001FB03F32449A1FB03139B090133A7E746
:10172C00A268BAB9461E03EB4307B6FBF7F60136BF
:10173C00C6F30B06B6FA86F6760936BBC2B9013883
:10174C0003EB4303B0FBF3F30133C3F30B0242F49B
:10175C000043A3E7461E03EB830707EB8707B6FBA3
:10176C00F7F60136C6F30B06B6FA86F67609E4E709
:10177C00013803EB830303EB8303B0FBF3F2013279
:10178C00C2F30B0242F4404388E7012386E70120B1
:10179C0070470120AEE700BFA08601007F841E00C9
:1017AC0083DE1B43FF083D00D34D62102DE9F04151
:1017BC0084B004460E4690461F46FFF74FFC94F843
:1017CC003D30DBB2202B04D00226304604B0BDE8FD
:1017DC00F08105460090192301224F492046FFF75E
:1017EC00CEFD002840F0918094F83C30012B00F0A5
:1017FC008E80012384F83C3023681A6812F0010FA4
:10180C0003D11A6842F001021A602268136823F4AB
:10181C0000631360212384F83D30102384F83E309C
:10182C0000232364C4F824806785638D23853B4B98
:10183C00E3622B460A9A31462046FFF72BFE0646FA
:10184C00002866D10023039323685A6903929B698D
:10185C000393039B12E0236C042B01D00126B4E705
:10186C002268136843F4007313600126ADE72A461F
:10187C000A992046FFF796FE00282CD1238D002BC9
:10188C0035D02A460A992046FFF762FE0028E2D19D
:10189C00626A236812781A61616A4B1C6362638DF9
:1018AC00013B9BB26385238D013B9BB22385226850
:1018BC00506910F0040FDAD0002BD8D04B7813619C
:1018CC00636A01336362638D013B9BB26385238D35
:1018DC00013B2385CBE7236C042B01D0012674E755
:1018EC002268136843F40073136001266DE72268C5
:1018FC00136843F400731360202384F83D300023F5
:10190C0084F83E3084F83C305FE702265DE702261F
:10191C005BE7012659E700BF020010000000FFFF43
:10192C0082B0084B1B68084AA2FB03235B0A00FB2E
:10193C0003F0019000BF019B5A1E0192002BF9D1BC
:10194C0002B0704700000020D34D6210002800F058
:10195C00F58170B582B00446036813F0010F2CD0EA
:10196C00AB4B5B6803F00C03042B1DD0A84B5B68DE
:10197C0003F00C03082B12D06368B3F5803F41D001
:10198C00002B55D103F1804303F504331A6822F47C
:10199C0080321A601A6822F480221A6037E09C4B5D
:1019AC005B6813F4803FE7D0994B1B6813F4003F3E
:1019BC0003D06368002B00F0C381236813F0020F7F
:1019CC0076D0934B5B6813F00C0F5FD0904B5B6839
:1019DC0003F00C03082B54D02369002B00F08A80F1
:1019EC008C4B01221A60FFF739FB0546884B1B68AC
:1019FC0013F0020F75D1FFF731FB401B0228F5D90C
:101A0C000320A0E1824A136843F4803313606368B7
:101A1C0043B3FFF723FB05467D4B1B6813F4003FD4
:101A2C00CBD1FFF71BFB401B6428F5D903208AE1BF
:101A3C00B3F5A02F09D0764B1A6822F480321A60C5
:101A4C001A6822F480221A60E1E703F18043A3F5BF
:101A5C003C331A6842F480221A601A6842F48032CD
:101A6C001A60D4E7FFF7FAFA0546694B1B6813F4C2
:101A7C00003FA2D0FFF7F2FA401B6428F5D90320EF
:101A8C0061E1634B5B6813F4803FA5D1604B1B682D
:101A9C0013F0020F04D02369012B01D0012052E175
:101AAC005B4A136823F0F803616943EAC1031360CE
:101ABC00236813F0080F32D0A369002B5BD0564B70
:101ACC0001221A60FFF7CAFA0546514B5B6A13F004
:101ADC00020F21D1FFF7C2FA401B0228F5D90320CF
:101AEC0031E14B4A136823F0F803616943EAC103FF
:101AFC001360DDE7474B00221A60FFF7AFFA05468B
:101B0C00434B1B6813F0020FD2D0FFF7A7FA401B10
:101B1C000228F5D9032016E10120FFF701FF236805
:101B2C0013F0040F00F09880394BDB6913F0805FE1
:101B3C0033D1374BDA6942F08052DA61DB6903F05A
:101B4C0080530193019B0125344B1B6813F4807F58
:101B5C0025D0E368012B36D0002B4CD103F1804308
:101B6C0003F504331A6A22F001021A621A6A22F08F
:101B7C0004021A622CE0284B00221A60FFF76EFA5E
:101B8C000546234B5B6A13F0020FC8D0FFF766FAC9
:101B9C00401B0228F5D90320D5E00025D4E71F4AC5
:101BAC00136843F480731360FFF758FA06461B4B17
:101BBC001B6813F4807FCCD1FFF750FA801B64288C
:101BCC00F5D90320BFE0124A136A43F001031362F4
:101BDC00E3687BB3FFF742FA06460D4B1B6A13F022
:101BEC00020F38D1FFF73AFA801B41F28833984242
:101BFC00F3D90320A7E0052B12D0054B1A6A22F06B
:101C0C0001021A621A6A22F004021A62E0E700BFAB
:101C1C00001002400000424280044242007000402A
:101C2C004C4B1A6A42F004021A621A6A42F0010220
:101C3C001A62CDE7FFF712FA0646464B1B6A13F001
:101C4C00020F08D0FFF70AFA801B41F28833984242
:101C5C00F3D9032077E0E5B9E369002B72D03D4A54
:101C6C00526802F00C02082A56D0022B17D03A4BBD
:101C7C0000221A60FFF7F2F90446364B1B6813F08A
:101C8C00007F47D0FFF7EAF9001B0228F5D90320A3
:101C9C0059E0304AD36923F08053D361DCE72E4BF3
:101CAC0000221A60FFF7DAF905462A4B1B6813F07D
:101CBC00007F06D0FFF7D2F9401B0228F5D903208C
:101CCC0041E0236AB3F5803F1AD022494B6823F4D4
:101CDC007413226A606A024313434B601E4B012249
:101CEC001A60FFF7BBF904461A4B1B6813F0007F10
:101CFC000ED1FFF7B3F9001B0228F5D9032022E01F
:101D0C00144A536823F40033A1680B435360DCE797
:101D1C00002018E0002016E0012B16D00D4B5B685C
:101D2C0003F48031226A914201D001200BE003F4CC
:101D3C007013626A93420AD0012004E001207047BC
:101D4C00012000E0002002B070BD0120FBE7002064
:101D5C00F9E700BF001002406000424210B487B0A7
:101D6C00164C94E80F000DF1180C0CE90F00238AA7
:101D7C00ADF80430124B5B6803F00C02082A1AD140
:101D8C00C3F38342624412F8102C13F4803F05D144
:101D9C000C4800FB02F007B010BC7047084B5B68A6
:101DAC00C3F34043634413F8143C074800FB02F0B0
:101DBC00B0FBF3F0EFE70448EDE700BFE0200008CC
:101DCC000010024000093D0000127A00002800F0CB
:101DDC00A38070B50446524B1B6803F007038B427B
:101DEC000CD24F4A136823F007030B43136013689C
:101DFC0003F007038B4201D0012070BD236813F060
:101E0C00020F17D013F0040F04D0464A536843F462
:101E1C00E0635360236813F0080F04D0414A536801
:101E2C0043F4605353603F4A536823F0F003A068B7
:101E3C00034353600D46236813F0010F31D06368E0
:101E4C00012B20D0022B25D0364A126812F0020F3B
:101E5C0064D034494A6822F0030213434B60FFF705
:101E6C00FDF806462F4B5B6803F00C036268B3EB7E
:101E7C00820F16D0FFF7F2F8801B41F2883398429C
:101E8C00F0D90320B9E7274A126812F4003FE0D1D9
:101E9C000120B2E7234A126812F0007FD9D1012049
:101EAC00ABE71F4B1B6803F00703AB420CD91C4A72
:101EBC00136823F007032B431360136803F0070325
:101ECC00AB4201D0012098E7236813F0040F06D031
:101EDC00144A536823F4E063E1680B4353602368AE
:101EEC0013F0080F07D00F4A536823F4605321698D
:101EFC0043EAC1035360FFF731FF0A4B5B68C3F33E
:101F0C000313094AD35CD840084B1860084B186877
:101F1C00FFF762F8002070E70120704701206CE7A2
:101F2C000020024000100240C820000800000020E1
:101F3C0018000020014B1868704700BF00000020FB
:101F4C0008B5FFF7F7FF044B5B68C3F30223034AA2
:101F5C00D35CD84008BD00BF00100240D820000858
:101F6C00002103E00B4B5B58435004310A480B4BE8
:101F7C0042189A42F6D30A4A02E0002342F8043B84
:101F8C00084B9A42F9D3FEF7A7FB00F00FF8FEF7C7
:101F9C0000FB704760210008000000201C0000209E
:101FAC001C00002004010020FEE7000070B5002595
:101FBC000C4E0D4CA41BA410A54209D100F072F8D4
:101FCC0000250A4E0A4CA41BA410A54205D170BDD5
:101FDC0056F8253098470135EEE756F825309847E6
:101FEC000135F2E758210008582100085821000853
:101FFC005C210008931E222B10B50C4604D900233B
:10200C001C460B70204610BD0A2A09D1002807DA9D
:10201C002D230B7001214042214400F005F8F1E71B
:10202C000021F9E7FFF7E6BFF0B58BB005460C468B
:10203C006E461B4B03F1200C374618685968083361
:10204C0003C763453E46F7D118681B7938603B716E
:10205C00931E222B4FF0000304D923701C462046FC
:10206C000BB0F0BD661EB5FBF2F002FB10550AAFCB
:10207C003D4415F8285C591C06F8015F054668B903
:10208C00224660542344191B101B8142E7DD117852
:10209C00187802F8010B03F80119F4E70B46E2E794
:1020AC0030210008F8B500BFF8BC08BC9E4670474C
:0C20BC00F8B500BFF8BC08BC9E46704799
:1020C80000000000000000000102030406070809E0
:1020D80000000000010203040203040506070809C2
:1020E8000A0B0C0D0E0F1010010200005356454943
:1020F8004B490000414952534F465447414D450012
:1021080052454400475245454E000000424C554553
:1021180000000000574849544500000030300000D6
:10212800303030300000000030313233343536374B
:1021380038396162636465666768696A6B6C6D6E7D
:102148006F707172737475767778797A0000000011
:042158003101000849
:04215C000D01000869
:102160000024F40001000000010000000100000054
:0C21700001000000010000001000000051
:0400000508001F6D63
:00000001FF
